:020000040000FA
:100000000C945D000C94A2090C947B090C9485005F
:100010000C9485000C9485000C9485000C9485004C
:100020000C9485000C9485000C9485000C9485003C
:100030000C9485000C9485000C9485000C9485002C
:100040000C9431090C9485000C94FF080C94D90889
:100050000C9485000C9485000C9485000C9485000C
:100060000C94C9090C9485000000000024002700AE
:100070002A0000000000250028002B0004040404CE
:100080000404040402020202020203030303030342
:10009000010204081020408001020408102001021F
:1000A00004081020000000080002010000030407FB
:1000B0000000000000000000E80A11241FBECFEF7E
:1000C000D8E0DEBFCDBF11E0A0E0B1E0EAEAF9E19F
:1000D00002C005900D92A436B107D9F722E0A4E63C
:1000E000B1E001C01D92AF3FB207E1F710E0CDE5EE
:1000F000D0E004C02197FE010E94CD0CCC35D10781
:10010000C9F70E944A0B0C94D30C0C94000008957C
:100110000895AF92BF92CF92DF92EF92FF920F932A
:100120001F93CF93DF936C017B018B01040F151F8D
:10013000EB015E01AE18BF08C017D10759F06991F5
:10014000D601ED91FC910190F081E02DC601099559
:10015000892B79F7C501DF91CF911F910F91FF9006
:10016000EF90DF90CF90BF90AF900895FC01538D3A
:10017000448D252F30E0842F90E0821B930B541781
:1001800010F0CF96089501970895FC01918D828D0E
:10019000981761F0A28DAE0FBF2FB11D5D968C91A7
:1001A000928D9F5F9F73928F90E008958FEF9FEFE6
:1001B0000895FC01918D828D981731F0828DE80FA2
:1001C000F11D858D90E008958FEF9FEF0895FC015C
:1001D000918D228D892F90E0805C9F4F821B910929
:1001E0008F73992708958BE392E00E94E70021E046
:1001F000892B09F420E0822F089580E090E0892B7C
:1002000029F00E94F30081110C9400000895CF9210
:10021000DF92EF92FF921F93CF93DF93EC016A017D
:100220007B01122FE889F98982E08083C11481EE75
:10023000D806E104F104A1F060E079E08DE390E0FC
:10024000A70196010E94970C2150310941095109DB
:100250005695479537952795211580E1380798F0F1
:10026000E889F989108260E874E88EE190E0A701DE
:1002700096010E94970C2150310941095109569568
:10028000479537952795EC85FD853083EE85FF856D
:100290002083188EEC89FD891083EA89FB8980818F
:1002A00080618083EA89FB89808188608083EA8914
:1002B000FB89808180688083EA89FB8980818F7DCA
:1002C0008083DF91CF911F91FF90EF90DF90CF90CF
:1002D0000895FC01A48DA80FB92FB11DA35ABF4FDB
:1002E0002C91848D90E001968F739927848FA68935
:1002F000B7892C93A089B1898C91837080648C9389
:10030000938D848D981306C00288F389E02D808137
:100310008F7D80830895EF92FF920F931F93CF9369
:10032000DF93EC0181E0888F9B8D8C8D98131AC030
:10033000E889F989808185FF15C09FB7F894EE8917
:10034000FF896083E889F989808183708064808374
:100350009FBF81E090E0DF91CF911F910F91FF90BF
:10036000EF900895F62E0B8D10E00F5F1F4F0F7367
:100370001127E02E8C8D8E110CC00FB607FCFACF22
:10038000E889F989808185FFF5CFCE010E94690156
:10039000F1CFEB8DEC0FFD2FF11DE35AFF4FF082F3
:1003A0009FB7F8940B8FEA89FB8980818062CFCF59
:1003B000CF93DF93EC01888D8823B9F0AA89BB899C
:1003C000E889F9898C9185FD03C0808186FD0DC087
:1003D0000FB607FCF7CF8C9185FFF2CF808185FFA8
:1003E000EDCFCE010E946901E9CFDF91CF91089551
:1003F00090E0FC01EC55FF4F2491FC01E057FF4FCA
:100400003491FC01E458FF4FE491EE23C9F022231C
:1004100039F0233001F1A8F4213019F1223029F10B
:10042000F0E0EE0FFF1FEE58FF4FA591B4918FB78C
:10043000F894EC91611126C030953E233C938FBF18
:1004400008952730A9F02830C9F0243049F7809169
:1004500080008F7D03C0809180008F778093800023
:10046000DFCF84B58F7784BDDBCF84B58F7DFBCFA5
:100470008091B0008F778093B000D2CF8091B00090
:100480008F7DF9CF3E2BDACF8091E4029091E50287
:10049000DC01ED91FC910680F781E02D09958091BA
:1004A000E8029091E90297FD07C0E3ECF0E0319794
:1004B000F1F760E00E94F8011092EC02089580913B
:1004C000E8029091E90297FD07C061E00E94F801FF
:1004D00083EC90E00197F1F781E08093EC020895BE
:1004E000CF93DF9390E0FC01E057FF4F24918458B5
:1004F0009F4FFC0184918823D1F090E0880F991FD1
:10050000FC01E859FF4FA591B491FC01EE58FF4F53
:10051000C591D49161110EC09FB7F8948C91E22FD0
:10052000E0958E238C932881E223E8839FBFDF919F
:10053000CF9108958FB7F894EC91E22BEC938FBF95
:10054000F6CF3FB7F8948091B6019091B701A09192
:10055000B801B091B90126B5A89B05C02F3F19F08D
:100560000196A11DB11D3FBFBA2FA92F982F882733
:10057000BC01CD01620F711D811D911D42E0660F0E
:10058000771F881F991F4A95D1F708958F929F92E0
:10059000AF92BF92CF92DF92EF92FF924B015C013C
:1005A0000E94A1026B017C010E94A1026C197D09CD
:1005B0008E099F09683E734081059105A8F321E0EB
:1005C000821A9108A108B10888EEC80E83E0D81EEF
:1005D000E11CF11C81149104A104B10429F7FF90DE
:1005E000EF90DF90CF90BF90AF909F908F90089545
:1005F000089581E00895FC018489882349F0848569
:100600009585DC01ED91FC910190F081E02D09943C
:1006100081E090E09383828390E080E00895DC01A4
:100620001C968D919C91DC01ED91FC910680F781E7
:10063000E02D0994DC011C968D919C91DC01ED91DB
:10064000FC910284F385E02D0994DC011C968D91C8
:100650009C91DC01ED91FC910484F585E02D0994D9
:10066000DC011C968D919C91DC01ED91FC91008444
:10067000F185E02D09940F931F93CF93DF938C01A5
:10068000FC01C485D585E881F9810680F781E02DDC
:10069000CE010995EA89FB8980818F7E8083EA8972
:1006A000FB898081877F8083EA89FB8980818F77BE
:1006B0008083EA89FB8980818F7D80838A8D898F01
:1006C000F8018289938997FD08C060E00E94F801D3
:1006D00060E0F80180890E947002F80180899189A8
:1006E00097FD0CC060E00E94F80160E0F80182898B
:1006F000DF91CF911F910F910C947002DF91CF91F8
:100700001F910F910895CF92DF92EF92FF921F9366
:10071000CF93DF93EC016A017B01122FCD8ADE8A31
:10072000EF8AF88E298F3A8F8889998997FD07C0BB
:1007300061E00E94700260E088890E94F8018A8965
:100740009B8997FD07C061E00E94700261E08A8981
:100750000E94F8011C8A212FB701A6018C859D8576
:10076000DF91CF911F91FF90EF90DF90CF900C948D
:100770000701DC01ED91FC910088F189E02D26E074
:1007800030E0099420918E01260F3327331F213248
:100790003105ECF420911102FC0190E080E024305E
:1007A00069F082E00895A0918E012191AC01425937
:1007B0005E4FA40FB52FB11D2C930196861798F3A9
:1007C00080918E01680F60938E0180E0089581E032
:1007D00008951092110281E0809310021092EB01B3
:1007E00061E082E10E94F80161E083E10E94F8018A
:1007F000E9EBF0E080818E7F808380818D7F808334
:1008000088E48093B80085E48093BC000895CF937A
:10081000DF9391E090936D018823B9F0C091B80007
:10082000D091BA008091BC008A7B8093BC0060E0CC
:1008300082E10E94F80160E083E10E94F8010E94D9
:10084000E903D093BA00C093B800DF91CF91089527
:10085000CF92DF92EF92FF920F931F93CF93DF938C
:10086000D0913A0281E0D13208F09CC0C0913902A7
:100870000E94A1026B017C018091110281116CC068
:1008800082E08093110281E0809310028FEF8093C9
:100890000F0210920E02D0930D02A9E1B2E0EDEE2C
:1008A000F1E080E0D8138DC01092EC018091EC0152
:1008B000CC0FC82BC093EC018091EB01813009F083
:1008C00084C01092EB010E94A1026B017C01809117
:1008D000EC018093BB008091130290911402A091CF
:1008E0001502B0911602892B8A2B8B2BA1F00E9446
:1008F000A10200911302109114022091150230916F
:1009000016026C197D098E099F090617170728071B
:10091000390708F442C08091BC0083FDD8CF85EC34
:100920008093BC000E94A1026B017C0180911102A6
:10093000823009F44CC080910F028F3F09F469C0E6
:1009400080910F02803209F466C080910F028033DB
:1009500009F463C084E026C08091130290911402D0
:10096000A0911502B0911602892B8A2B8B2B09F4CA
:1009700083CF0E94A10200911302109114022091D2
:100980001502309116026C197D098E099F09061710
:1009900017072807390708F06FCF809112020E94CD
:1009A000070485E01092180210923A021092170282
:1009B000DF91CF911F910F91FF90EF90DF90CF903B
:1009C00008959D9191938F5F6DCF85EEA9CF809112
:1009D000130290911402A0911502B0911602892B76
:1009E0008A2B8B2B09F4A2CF0E94A1020091130243
:1009F0001091140220911502309116026C197D0994
:100A00008E099F09061717072807390708F08ECFA8
:100A1000C4CF80E0C7CF82E0C5CF83E0C3CF0895C5
:100A2000E091C3018091C201E81730F4F0E0EC538B
:100A3000FE4F808190E008958FEF9FEF0895909191
:100A4000C3018091C2012FEF3FEF981748F4E92FBF
:100A5000F0E0EC53FE4F208130E09F5F9093C301A4
:100A6000C90108958091C2019091C301891B990B1E
:100A70000895CF92DF92EF92FF920F931F93CF933F
:100A8000DF937C01CB018A0120911702222389F098
:100A9000EB016B01C40ED51ECC15DD0569F0699123
:100AA000D701ED91FC910190F081E02DC7010995EE
:100AB000F3CF642F0E94C203C801DF91CF911F9131
:100AC0000F91FF90EF90DF90CF900895CF93DF9339
:100AD0001F92CDB7DEB76983209117022223F9F068
:100AE00020913A02203258F021E030E0FC013383BB
:100AF000228390E080E00F90DF91CF910895809164
:100B00001802E82FF0E0E75EFD4F998190838F5F38
:100B10008093180280933A0281E090E0ECCF61E08C
:100B2000CE0101960E94C203F7CFDF92EF92FF92AF
:100B30000F931F93CF93DF93D82EF62E142FD22F1F
:100B400081E08093170288E68093390210921802A0
:100B500010923A0260E083EF92E00E94660560E046
:100B600083EF92E00E946605CAE08D2D6C2F0E94F3
:100B7000770C8295807F682F690F83EF92E00E9447
:100B800066058F2D6C2F0E94770C8295807F682FD1
:100B9000690F83EF92E00E946605812F6C2F0E94FF
:100BA000770C8295807F682F690F83EF92E00E9417
:100BB00066058D2F6C2F0E94770C8295807F682FA1
:100BC000690F83EF92E00E946605802F6C2F0E94D0
:100BD000770C8295807F682F690F83EF92E00E94E7
:100BE00066058E2D6C2F0E94770C8295807F682F72
:100BF000690F83EF92E00E946605DF91CF911F910C
:100C00000F91FF90EF90DF900C94280490E080E02B
:100C100008954CE251E060E070E088ED92E00E94BF
:100C2000B9030E945F0241E050E06CE671E088ED9C
:100C300092E00E9489006AE070E080E090E00E940B
:100C4000C6020E94440240E05BE460E070E088ED90
:100C500092E00E94B9030895CF93C82F0E9409061D
:100C60000E945F02C85FC093070144E050E064E067
:100C700071E088ED92E00E94890062E370E080E01C
:100C800090E00E94C602CF910C944402CF93C82FEB
:100C90000E9409060E945F02CF3198F4C0930301BD
:100CA00044E050E060E071E088ED92E00E9489004D
:100CB00062E370E080E090E00E94C602CF910C9465
:100CC0004402CF5FEBCF0F931F932FB7F89480911F
:100CD000B2019091B301A091B401B091B5012FBFC1
:100CE000409168015091690160916A0170916B01B6
:100CF0008C019D01041B150B260B370BB901A801B4
:100D0000493C51056105710530F021E030E0309338
:100D1000BF012093BE018093680190936901A09365
:100D20006A01B0936B011F910F9108950F931F9368
:100D30002FB7F8948091B2019091B301A091B401C2
:100D4000B091B5012FBF4091640150916501609150
:100D50006601709167018C019D01041B150B260B28
:100D6000370BB901A801493C51056105710530F007
:100D700021E030E03093C1012093C00180936401F1
:100D800090936501A0936601B09367011F910F9145
:100D90000895CF92DF92EF92FF920F931F93CF931C
:100DA00081E08093170288E680933902109218023E
:100DB00010923A0260E083EF92E00E9466050E9482
:100DC00028040E94A1026B017C0180911102811113
:100DD00065C081E080931102809310029FEF909391
:100DE0000F0210920E0296E090930D028093EC0198
:100DF0008091EC01806D8093EC018091EB0181305A
:100E000009F0DAC01092EB010E94A1026B017C0193
:100E10008091EC018093BB008091130290911402A9
:100E2000A0911502B0911602892B8A2B8B2BA1F071
:100E30000E94A10200911302109114022091150248
:100E4000309116026C197D098E099F090617170744
:100E50002807390708F443C08091BC0083FDD8CF30
:100E600085EC8093BC000E94A1026B017C01809103
:100E70001102813009F4A2C080910E02873008F07F
:100E8000BFC080910E02ADEEB1E0E4ECF1E090E085
:100E9000981751F12D9121939F5FFACF8091130202
:100EA00090911402A0911502B0911602892B8A2B01
:100EB0008B2B09F48ACF0E94A1020091130210919A
:100EC000140220911502309116026C197D098E09C9
:100ED0009F09061717072807390708F076CF809172
:100EE00012020E94070480E01092C3018093C201A5
:100EF00083EF92E00E941F05982F92959770CAE0A9
:100F00008F709C9F800D11248093EA0183EF92E003
:100F10000E941F05982F92959F708F709C9F800D47
:100F200011248093E90183EF92E00E941F05982F1E
:100F3000929593708F709C9F800D11248093E8018F
:100F400083EF92E00E941F05982F92959F708F70FB
:100F50009C9F800D11248093E70183EF92E00E9413
:100F60001F05982F92959F708F709C9F800D112464
:100F70008093E60183EF92E00E941F05982F9295DF
:100F80009F708F709C9F800D11248093E50183EFEB
:100F900092E00E941F05982F92959F708F709C9FE2
:100FA000800D11248093E401CF911F910F91FF9048
:100FB000EF90DF90CF90089585EE53CF809113028C
:100FC00090911402A0911502B0911602892B8A2BE0
:100FD0008B2B09F44CCF0E94A102009113021091B7
:100FE000140220911502309116026C197D098E09A8
:100FF0009F09061717072807390708F038CF6FCF62
:1010000087E041CFFC0101900020E9F73197AF0163
:10101000481B590BBC018BE392E00C948900CF92E2
:10102000DF92EF92FF920F931F93CF93DF93CDB791
:10103000DEB7A1970FB6F894DEBF0FBECDBF282F45
:1010400030E050E040E019A28E010F5D1F4F8AE0B2
:10105000C82ED12CE12CF12CCA01B901A7019601AF
:101060000E94970C605DF80162938F012115310594
:101070004105510589F790E080E0309719F0CF01E4
:101080000E940208A1960FB6F894DEBF0FBECDBF36
:10109000DF91CF911F910F91FF90EF90DF90CF9054
:1010A0000895CF93DF930E940208EC018CE491E055
:1010B0000E9402088C0F9D1FDF91CF9108950E941E
:1010C000C9068EE491E00E9451088091E8010E94D7
:1010D0000F088FE491E00E9402088091E9018A30B4
:1010E00020F481E591E00E9402088091E9010E94CC
:1010F0000F088FE491E00E9402088091EA018A3093
:1011000020F481E591E00E9402088091EA010E94AA
:101110000F0883E591E00E9402088091E6010E9499
:101120000F0886E591E00E9402088091E5010E9487
:101130000F0886E591E00E9402088091E4010C947A
:101140000F0885ED8093BC008091130290911402EA
:10115000A0911502B09116020796A11DB11D23E0C2
:10116000B695A795979587952A95D1F72091BC00BC
:1011700024FD03C010921102089540911302509172
:1011800014026091150270911602452B462B472BD5
:1011900069F30097A105B10541F025E32A95F1F720
:1011A00000000197A109B109E1CF809112020C94CE
:1011B00007041F920F920FB60F9211242F933F93A3
:1011C0004F935F936F937F938F939F93AF93BF934F
:1011D000EF93FF938BE392E00E946901FF91EF91FF
:1011E000BF91AF919F918F917F916F915F914F913F
:1011F0003F912F910F900FBE0F901F9018951F9247
:101200000F920FB60F9211242F938F939F93EF930A
:10121000FF93E0914B02F0914C028081E0915102EA
:10122000F091520282FD1BC09081809154028F5F29
:101230008F7320915502821741F0E0915402F0E043
:10124000E55CFD4F958F80935402FF91EF919F9144
:101250008F912F910F900FBE0F901F901895808146
:10126000F4CF1F920F920FB60F9211242F933F933A
:101270008F939F93AF93BF938091B2019091B301ED
:10128000A091B401B091B5013091B10123E0230FD9
:101290002D3758F50196A11DB11D2093B101809302
:1012A000B2019093B301A093B401B093B5018091C2
:1012B000B6019091B701A091B801B091B901019622
:1012C000A11DB11D8093B6019093B701A093B80101
:1012D000B093B901BF91AF919F918F913F912F91A1
:1012E0000F900FBE0F901F90189526E8230F0296BF
:1012F000A11DB11DD2CF1F920F920FB60F921124D4
:101300002F933F934F935F936F937F938F939F930D
:10131000AF93BF93EF93FF93E0910A01F0910B011C
:101320000995FF91EF91BF91AF919F918F917F911F
:101330006F915F914F913F912F910F900FBE0F9042
:101340001F9018951F920F920FB60F9211242F9392
:101350003F934F935F936F937F938F939F93AF933D
:10136000BF93EF93FF93E0910801F0910901099574
:10137000FF91EF91BF91AF919F918F917F916F916D
:101380005F914F913F912F910F900FBE0F901F9043
:1013900018951F920F920FB60F9211242F933F931F
:1013A0004F935F936F937F938F939F93AF93BF936D
:1013B000EF93FF938091B900887F803609F44AC08B
:1013C000F0F5883209F4A7C018F5803109F49BC004
:1013D000B8F4882309F4F9C0883009F494C0FF9167
:1013E000EF91BF91AF919F918F917F916F915F919D
:1013F0004F913F912F910F900FBE0F901F90189516
:10140000883109F488C0803251F780930F0214C0EC
:10141000803409F49DC040F48033B9F38833F9F681
:1014200080930F0285ECB0C0803509F485C0883503
:1014300009F496C0883499F60E94A108D0CF883963
:1014400009F48CC038F5883729F050F4883611F04B
:10145000803729F683E0809311021092B00157C0C3
:10146000883809F47BC0803919F0803809F0B7CF8B
:101470008091B001803208F071C0E091B00181E04C
:101480008E0F8093B0018091BB00F0E0E057FE4FDB
:1014900080833DC0803B39F0E0F4803A09F479C0A4
:1014A000883A09F09CCF84E08093110210928F015A
:1014B00010928E01E091BC01F091BD0109958091DF
:1014C0008E0181110FC081E080938E0110926E0118
:1014D00009C0803C09F4A6CF883C09F4A3CF883B1F
:1014E00009F07DCFE0918F0181E08E0F80938F0115
:1014F000F0E0E259FE4F80818093BB0090918F0114
:1015000080918E0129C08091EC018093BB0085EC15
:101510008093BC0064CF90910E0280910D029817C9
:1015200058F5E0910E0281E08E0F80930E02F0E0FC
:10153000E351FE4F8081E9CFE0910E0281E08E0FF2
:1015400080930E028091BB00F0E0E351FE4F808358
:1015500090910E0280910D029817C8F285E8D8CFBD
:10156000E0910E0281E08E0F80930E028091BB000D
:10157000F0E0E351FE4F80838091100281115CCF37
:1015800081E08093EB0184EA8093BC001092110209
:1015900026CF85EC8093BC00109211028091B0019F
:1015A000803230F4E091B001F0E0E057FE4F10825D
:1015B0006091B00170E0E091BA01F091BB0180E967
:1015C00091E009951092B0010ACF10920F0234CF2A
:1015D000EBE3F2E01382128248EE53E060E070E049
:1015E000448355836683778382E191E0918380838E
:1015F00085EC90E09587848784EC90E097878687D8
:1016000080EC90E0918B808B81EC90E0938B828BCF
:1016100082EC90E0958B848B86EC90E0978B868BA8
:10162000118E128E138E148EA8EDB2E013961C92BA
:101630001E92129714964D935D936D937C9317971A
:1016400084E291E011969C938E931D96FC93EE9309
:101650001C9781E090E01F969C938E931E9782E0EA
:1016600090E051969C938E9350978FEF9FEF5396F7
:101670009C938E93529754961C92E3EFF2E0138260
:10168000128244835583668377838EE391E091834E
:1016900080830895789484B5826084BD84B5816028
:1016A00084BD85B5826085BD85B5816085BD80912D
:1016B0006E00816080936E001092810080918100A5
:1016C000826080938100809181008160809381009D
:1016D000809180008160809380008091B10084605F
:1016E0008093B1008091B00081608093B0008091C0
:1016F0007A00846080937A0080917A00826080937F
:101700007A0080917A00816080937A0080917A00DB
:10171000806880937A001092C1001092C3011092E9
:10172000C2011092180210923A020E94E90387E85F
:1017300090E09093BD018093BC0188E890E0909385
:10174000BB018093BA0126E040E855E260E070E01A
:101750008BE392E00E94070140E05BE460E070E010
:1017600088ED92E00E94B90384E1E82E01E02DE1CA
:1017700046E06EE08DE00E94950568EE73E080E043
:1017800090E00E94C6029CE3C92ED12C28E1A22E33
:10179000B12CC0E0D0E088248394912C0E94C9062B
:1017A00080910C0190910D012091EA01253009F002
:1017B00096C00197F1F410920D0110920C018091E6
:1017C000E9010E9446068091E9010E940F088CE41D
:1017D00091E00E9402088091E8010E942C0680910D
:1017E000E8010E940F088CE491E00E9402080E9428
:1017F0005F088091C0019091C101019779F50E9425
:10180000C9068091E90190E00196B6010E94830C1F
:101810008093E901E090E4010091E5012091E60167
:101820004091E7016091E8010E9495050E945F08E0
:1018300060E177E280E090E00E94C6028091E901D9
:101840000E9446068091E8010E942C0688E591E0FE
:101850000E9451081092C1011092C0018091BE01F6
:101860009091BF01019781F50E94C9068091E8011E
:1018700090E00196B5010E94830C8093E801E0900E
:10188000E4010091E5012091E6014091E701682F14
:101890008091E9010E9495050E945F0860E177E26E
:1018A00080E090E00E94C6028091E9010E94460615
:1018B0008091E8010E942C068FE591E00E9451087A
:1018C0001092BF011092BE01209709F467CF0E94C9
:1018D000F300882309F462CF0E9400005FCF892BB8
:1018E00009F087CF90920D0180920C0182CF991B55
:1018F00079E004C0991F961708F0961B881F7A9507
:10190000C9F78095089597FB072E16F4009407D029
:1019100077FD09D00E94B90C07FC05D03EF49095E4
:1019200081959F4F0895709561957F4F0895A1E22D
:101930001A2EAA1BBB1BFD010DC0AA1FBB1FEE1F49
:10194000FF1FA217B307E407F50720F0A21BB30B94
:10195000E40BF50B661F771F881F991F1A9469F710
:1019600060957095809590959B01AC01BD01CF016C
:101970000895AA1BBB1B51E107C0AA1FBB1FA617D6
:10198000B70710F0A61BB70B881F991F5A95A9F728
:1019900080959095BC01CD010895EE0FFF1F059035
:1019A000F491E02D0994F894FFCFFFC00100FFC02F
:1019B0000000F802F8020100000000008B0189001D
:1019C000B600D801E700C500D90000000000FB0206
:1019D000890006060F0330031A032503B9038303A6
:1019E0003B03F902000000006605390506060F05F5
:1019F00032051F0510050D0A003A0030002C2000AA
:0E1A00002F004D696E75746500486F75720099
:107E0000112484B714BE81FFF0D085E080938100F7
:107E100082E08093C00088E18093C10086E0809377
:107E2000C20080E18093C4008EE0C9D0259A86E02C
:107E300020E33CEF91E0309385002093840096BBD3
:107E4000B09BFECF1D9AA8958150A9F7CC24DD24C4
:107E500088248394B5E0AB2EA1E19A2EF3E0BF2EE7
:107E6000A2D0813461F49FD0082FAFD0023811F036
:107E7000013811F484E001C083E08DD089C08234E0
:107E800011F484E103C0853419F485E0A6D080C0E4
:107E9000853579F488D0E82EFF2485D0082F10E0AE
:107EA000102F00270E291F29000F111F8ED06801E7
:107EB0006FC0863521F484E090D080E0DECF843638
:107EC00009F040C070D06FD0082F6DD080E0C81688
:107ED00080E7D80618F4F601B7BEE895C0E0D1E017
:107EE00062D089930C17E1F7F0E0CF16F0E7DF06D8
:107EF00018F0F601B7BEE89568D007B600FCFDCFD4
:107F0000A601A0E0B1E02C9130E011968C91119780
:107F100090E0982F8827822B932B1296FA010C0160
:107F200087BEE89511244E5F5F4FF1E0A038BF0790
:107F300051F7F601A7BEE89507B600FCFDCF97BE46
:107F4000E89526C08437B1F42ED02DD0F82E2BD052
:107F50003CD0F601EF2C8F010F5F1F4F84911BD097
:107F6000EA94F801C1F70894C11CD11CFA94CF0C13
:107F7000D11C0EC0853739F428D08EE10CD085E9AC
:107F80000AD08FE07ACF813511F488E018D01DD067
:107F900080E101D065CF982F8091C00085FFFCCF94
:107FA0009093C60008958091C00087FFFCCF809118
:107FB000C00084FD01C0A8958091C6000895E0E648
:107FC000F0E098E1908380830895EDDF803219F02E
:107FD00088E0F5DFFFCF84E1DECF1F93182FE3DFCA
:107FE0001150E9F7F2DF1F91089580E0E8DFEE27F6
:047FF000FF270994CA
:027FFE00040479
:00000001FF
