:100000000C9462000C948A000C948A000C948A0070
:100010000C948A000C948A000C948A000C948A0038
:100020000C948A000C948A000C948A000C948A0028
:100030000C948A000C948A000C948A000C948A0018
:100040000C944E080C948A000C941C080C94F6072F
:100050000C948A000C948A000C948A000C948A00F8
:100060000C9498080C948A000000000024002700DB
:100070002A0000000000250028002B0000000000DE
:1000800023002600290004040404040404040202DA
:100090000202020203030303030301020408102007
:1000A0004080010204081020010204081020000012
:1000B0000008000201000003040700000000000027
:1000C0000000B70911241FBECFEFD8E0DEBFCDBFBF
:1000D00011E0A0E0B1E0E2E3F7E102C005900D928B
:1000E000A634B107D9F722E0A6E4B1E001C01D9221
:1000F000A93DB207E1F710E0C2E6D0E004C02197C5
:10010000FE010E94910BC136D107C9F70E94190A5E
:100110000C94970B0C94000008950895AF92BF9231
:10012000CF92DF92EF92FF920F931F93CF93DF93C3
:100130006C017B018B01040F151FEB015E01AE18F2
:10014000BF08C017D10759F06991D601ED91FC9114
:100150000190F081E02DC6010995892B79F7C50141
:10016000DF91CF911F910F91FF90EF90DF90CF9093
:10017000BF90AF900895FC01538D448D252F30E042
:10018000842F90E0821B930B541710F0CF960895A4
:1001900001970895FC01918D828D981761F0A28DD1
:1001A000AE0FBF2FB11D5D968C91928D9F5F9F7397
:1001B000928F90E008958FEF9FEF0895FC01918D4D
:1001C000828D981731F0828DE80FF11D858D90E0BA
:1001D00008958FEF9FEF0895FC01918D228D892F57
:1001E00090E0805C9F4F821B91098F73992708953F
:1001F00085E192E00E94EC0021E0892B09F420E0E7
:10020000822F089580E090E0892B29F00E94F80069
:1002100081110C9400000895FC01A48DA80FB92F42
:10022000B11DA35ABF4F2C91848D90E001968F731E
:100230009927848FA689B7892C93A089B1898C913D
:10024000837080648C93938D848D981306C002888C
:10025000F389E02D80818F7D80830895EF92FF9256
:100260000F931F93CF93DF93EC0181E0888F9B8DD9
:100270008C8D98131AC0E889F989808185FF15C093
:100280009FB7F894EE89FF896083E889F9898081B6
:100290008370806480839FBF81E090E0DF91CF9185
:1002A0001F910F91FF90EF900895F62E0B8D10E0A7
:1002B0000F5F1F4F0F731127E02E8C8D8E110CC016
:1002C0000FB607FCFACFE889F989808185FFF5CF61
:1002D000CE010E940C01F1CFEB8DEC0FFD2FF11D33
:1002E000E35AFF4FF0829FB7F8940B8FEA89FB899E
:1002F00080818062CFCFCF93DF93EC01888D8823FC
:10030000B9F0AA89BB89E889F9898C9185FD03C078
:10031000808186FD0DC00FB607FCF7CF8C9185FF5D
:10032000F2CF808185FFEDCFCE010E940C01E9CF95
:10033000DF91CF910895833081F028F4813099F0D6
:100340008230A9F008958730A9F08830C9F0843050
:10035000B1F4809180008F7D03C0809180008F7701
:1003600080938000089584B58F7784BD089584B507
:100370008F7DFBCF8091B0008F778093B000089580
:100380008091B0008F7DF9CFCF93DF93282F30E09D
:10039000F901E255FF4F8491F901E656FF4FD491E0
:1003A000F901EA57FF4FC491CC23A1F081110E94BB
:1003B0009B01EC2FF0E0EE0FFF1FE458FF4FA591DB
:1003C000B491EC91ED2381E090E009F480E0DF91BD
:1003D000CF91089580E090E0FACF1F93CF93DF9301
:1003E000282F30E0F901E255FF4F8491F901E656DC
:1003F000FF4FD491F901EA57FF4FC491CC23A9F0E4
:10040000162F81110E949B01EC2FF0E0EE0FFF1FD1
:10041000EE58FF4FA591B4918FB7F894EC9111115C
:1004200008C0D095DE23DC938FBFDF91CF911F9161
:100430000895DE2BF8CF8091BE029091BF02DC01BF
:10044000ED91FC910680F781E02D09958091C20223
:100450009091C30297FD07C0E3ECF0E03197F1F70C
:1004600060E00E94ED011092C60208958091C202E0
:100470009091C30297FD07C061E00E94ED0183ECFB
:1004800090E00197F1F781E08093C6020895CF9341
:10049000DF9390E0FC01E656FF4F24918A579F4F6F
:1004A000FC0184918823D1F090E0880F991FFC0112
:1004B000E859FF4FA591B491FC01EE58FF4FC5914B
:1004C000D49161110EC09FB7F8948C91E22FE09502
:1004D0008E238C932881E223E8839FBFDF91CF9105
:1004E00008958FB7F894EC91E22BEC938FBFF6CF81
:1004F0003FB7F8948091900190919101A091920161
:10050000B091930126B5A89B05C02F3F19F0019625
:10051000A11DB11D3FBFBA2FA92F982F8827BC015D
:10052000CD01620F711D811D911D42E0660F771F85
:10053000881F991F4A95D1F708958F929F92AF9285
:10054000BF92CF92DF92EF92FF924B015C010E942B
:1005500078026B017C010E9478026C197D098E097A
:100560009F09683E734081059105A8F321E0821A36
:100570009108A108B10888EEC80E83E0D81EE11CDE
:10058000F11C81149104A104B10429F7FF90EF90AC
:10059000DF90CF90BF90AF909F908F90089581E0B3
:1005A0000895FC018489882349F084859585DC01C0
:1005B000ED91FC910190F081E02D099481E090E0B3
:1005C0009383828390E080E00895DC011C968D91F6
:1005D0009C91DC01ED91FC910680F781E02D09945E
:1005E000DC011C968D919C91DC01ED91FC910284C3
:1005F000F385E02D0994DC011C968D919C91DC0122
:10060000ED91FC910484F585E02D0994DC011C96A4
:100610008D919C91DC01ED91FC910084F185E02DA0
:1006200009940F931F93CF93DF938C01FC01C48532
:10063000D585E881F9810680F781E02DCE01099505
:10064000EA89FB8980818F7E8083EA89FB898081AA
:10065000877F8083EA89FB8980818F778083EA891D
:10066000FB8980818F7D80838A8D898FF8018289C3
:10067000938997FD08C060E00E94ED0160E0F801F9
:1006800080890E944702F8018089918997FD0CC0FA
:1006900060E00E94ED0160E0F8018289DF91CF9176
:1006A0001F910F910C944702DF91CF911F910F91F1
:1006B0000895CF92DF92EF92FF921F93CF93DF9333
:1006C000EC016A017B01122FCD8ADE8AEF8AF88E57
:1006D000298F3A8F8889998997FD07C061E00E9428
:1006E000470260E088890E94ED018A899B8997FD15
:1006F00007C061E00E94470261E08A890E94ED0123
:100700001C8A0C84DD85C02DE889F98982E080830C
:10071000C11481EED806E104F104A1F060E079E0B3
:100720008DE390E0A70196010E945B0B21503109F7
:10073000410951095695479537952795211580E12F
:10074000380798F0E889F989108260E874E88EE14A
:1007500090E0A70196010E945B0B215031094109ED
:1007600051095695479537952795EC85FD8530833A
:10077000EE85FF852083188EEC89FD891083EA8938
:10078000FB89808180618083EA89FB898081886020
:100790008083EA89FB89808180688083EA89FB897C
:1007A00080818F7D8083DF91CF911F91FF90EF90AB
:1007B000DF90CF900895DC01ED91FC910088F189E4
:1007C000E02D26E030E0099420916801260F3327C0
:1007D000331F21323105ECF42091EB01FC0190E054
:1007E00080E0243069F082E00895A09168012191B1
:1007F000AC01485B5E4FA40FB52FB11D2C93019641
:10080000861798F380916801680F6093680180E013
:10081000089581E008951092EB0181E08093EA0150
:100820001092C50161E082E10E94ED0161E083E187
:100830000E94ED01E9EBF0E080818E7F8083808172
:100840008D7F808388E48093B80085E48093BC002A
:100850000895CF93DF9391E0909347018823B9F0F7
:10086000C091B800D091BA008091BC008A7B80937F
:10087000BC0060E082E10E94ED0160E083E10E9443
:10088000ED010E940B04D093BA00C093B800DF9131
:10089000CF910895CF92DF92EF92FF920F931F9323
:1008A000CF93DF93D091140281E0D13208F09CC045
:1008B000C09113020E9478026B017C018091EB01D0
:1008C00081116CC082E08093EB0181E08093EA01AA
:1008D0008FEF8093E9011092E801D093E701A3EF35
:1008E000B1E0E7ECF1E080E0D8138DC01092C601D2
:1008F0008091C601CC0FC82BC093C6018091C50161
:10090000813009F084C01092C5010E9478026B0109
:100910007C018091C6018093BB008091ED01909194
:10092000EE01A091EF01B091F001892B8A2B8B2B66
:10093000A1F00E9478020091ED011091EE0120914A
:10094000EF013091F0016C197D098E099F0906179E
:1009500017072807390708F442C08091BC0083FDBF
:10096000D8CF85EC8093BC000E9478026B017C019B
:100970008091EB01823009F44CC08091E9018F3FF6
:1009800009F469C08091E901803209F466C0809160
:10099000E901803309F463C084E026C08091ED0151
:1009A0009091EE01A091EF01B091F001892B8A2B7B
:1009B0008B2B09F483CF0E9478020091ED011091F6
:1009C000EE012091EF013091F0016C197D098E0943
:1009D0009F09061717072807390708F06FCF80917E
:1009E000EC010E94290485E01092F2011092140299
:1009F0001092F101DF91CF911F910F91FF90EF9035
:100A0000DF90CF9008959D9191938F5F6DCF85EE8C
:100A1000A9CF8091ED019091EE01A091EF01B091ED
:100A2000F001892B8A2B8B2B09F4A2CF0E9478022C
:100A30000091ED011091EE012091EF013091F00154
:100A40006C197D098E099F090617170728073907B2
:100A500008F08ECFC4CF80E0C7CF82E0C5CF83E05F
:100A6000C3CF0895E0919D0180919C01E81730F477
:100A7000F0E0E256FE4F808190E008958FEF9FEF07
:100A8000089590919D0180919C012FEF3FEF981761
:100A900048F4E92FF0E0E256FE4F208130E09F5FFE
:100AA00090939D01C901089580919C0190919D01B1
:100AB000891B990B0895CF92DF92EF92FF920F93CB
:100AC0001F93CF93DF937C01CB018A012091F10129
:100AD000222389F0EB016B01C40ED51ECC15DD0578
:100AE00069F06991D701ED91FC910190F081E02DC1
:100AF000C7010995F3CF642F0E94E403C801DF9179
:100B0000CF911F910F91FF90EF90DF90CF900895BC
:100B1000CF93DF931F92CDB7DEB769832091F101A8
:100B20002223F9F020911402203258F021E030E025
:100B3000FC013383228390E080E00F90DF91CF911E
:100B400008958091F201E82FF0E0ED50FE4F998179
:100B500090838F5F8093F2018093140281E090E094
:100B6000ECCF61E0CE0101960E94E403F7CFDF9263
:100B7000EF92FF920F931F93CF93DF93D82EF62E11
:100B8000142FD22F81E08093F10188E68093130225
:100B90001092F2011092140260E08DEC92E00E943B
:100BA000880560E08DEC92E00E948805CAE08D2DFA
:100BB0006C2F0E943B0B8295807F682F690F8DEC14
:100BC00092E00E9488058F2D6C2F0E943B0B82952E
:100BD000807F682F690F8DEC92E00E948805812F3D
:100BE0006C2F0E943B0B8295807F682F690F8DECE4
:100BF00092E00E9488058D2F6C2F0E943B0B8295FE
:100C0000807F682F690F8DEC92E00E948805802F0D
:100C10006C2F0E943B0B8295807F682F690F8DECB3
:100C200092E00E9488058E2D6C2F0E943B0B8295CE
:100C3000807F682F690F8DEC92E00E948805DF911C
:100C4000CF911F910F91FF90EF90DF900C944A0489
:100C500090E080E008954CE251E060E070E082EBCB
:100C600092E00E94DB030E94360241E050E066E41D
:100C700071E082EB92E00E948E006AE070E080E01A
:100C800090E00E949D020E941B0240E05BE460E055
:100C900070E082EB92E00E94DB030895CF93C82FAF
:100CA0000E942B060E943602C85FC093070144E0F1
:100CB00050E064E071E082EB92E00E948E0062E31B
:100CC00070E080E090E00E949D02CF910C941B02A6
:100CD000CF93C82F0E942B060E943602CF3198F482
:100CE000C093030144E050E060E071E082EB92E0E9
:100CF0000E948E0062E370E080E090E00E949D021E
:100D0000CF910C941B02CF5FEBCFCF92DF92EF928B
:100D1000FF920F931F93CF9381E08093F10188E6B8
:100D2000809313021092F2011092140260E08DEC95
:100D300092E00E9488050E944A040E9478026B019A
:100D40007C018091EB01811165C081E08093EB0112
:100D50008093EA019FEF9093E9011092E80196E0F9
:100D60009093E7018093C6018091C601806D8093C6
:100D7000C6018091C501813009F0DAC01092C50129
:100D80000E9478026B017C018091C6018093BB00B8
:100D90008091ED019091EE01A091EF01B091F001F1
:100DA000892B8A2B8B2BA1F00E9478020091ED01F8
:100DB0001091EE012091EF013091F0016C197D0945
:100DC0008E099F09061717072807390708F443C03B
:100DD0008091BC0083FDD8CF85EC8093BC000E943D
:100DE00078026B017C018091EB01813009F4A2C093
:100DF0008091E801873008F0BFC08091E801A7EC3E
:100E0000B1E0EEE9F1E090E0981751F12D912193D6
:100E10009F5FFACF8091ED019091EE01A091EF01DB
:100E2000B091F001892B8A2B8B2B09F48ACF0E9479
:100E300078020091ED011091EE012091EF013091C7
:100E4000F0016C197D098E099F09061717072807FD
:100E5000390708F076CF8091EC010E94290480E0E8
:100E600010929D0180939C018DEC92E00E944105BF
:100E7000982F92959770CAE08F709C9F800D1124D7
:100E80008093C4018DEC92E00E944105982F9295C9
:100E90009F708F709C9F800D11248093C3018DECF7
:100EA00092E00E944105982F929593708F709C9FBD
:100EB000800D11248093C2018DEC92E00E944105C7
:100EC000982F92959F708F709C9F800D1124809316
:100ED000C1018DEC92E00E944105982F92959F7080
:100EE0008F709C9F800D11248093C0018DEC92E047
:100EF0000E944105982F92959F708F709C9F800D46
:100F000011248093BF018DEC92E00E944105982F3F
:100F100092959F708F709C9F800D11248093BE01CD
:100F2000CF911F910F91FF90EF90DF90CF90089598
:100F300085EE53CF8091ED019091EE01A091EF01EC
:100F4000B091F001892B8A2B8B2B09F44CCF0E9496
:100F500078020091ED011091EE012091EF013091A6
:100F6000F0016C197D098E099F09061717072807DC
:100F7000390708F038CF6FCF87E041CF85ED8093F8
:100F8000BC008091ED019091EE01A091EF01B09134
:100F9000F0010796A11DB11D23E0B695A795979581
:100FA00087952A95D1F72091BC0024FD03C01092AB
:100FB000EB0108954091ED015091EE016091EF0138
:100FC0007091F001452B462B472B69F30097A10543
:100FD000B10541F025E32A95F1F700000197A10939
:100FE000B109E1CF8091EC010C9429041F920F927A
:100FF0000FB60F9211242F933F934F935F936F93EC
:101000007F938F939F93AF93BF93EF93FF9385E16C
:1010100092E00E940C01FF91EF91BF91AF919F91DF
:101020008F917F916F915F914F913F912F910F9091
:101030000FBE0F901F9018951F920F920FB60F9230
:1010400011242F938F939F93EF93FF93E0912502A9
:10105000F09126028081E0912B02F0912C0282FD1A
:101060001BC0908180912E028F5F8F7320912F0281
:10107000821741F0E0912E02F0E0EB5EFD4F958F7C
:1010800080932E02FF91EF919F918F912F910F905E
:101090000FBE0F901F9018958081F4CF1F920F9272
:1010A0000FB60F9211242F933F938F939F93AF937B
:1010B000BF9380918C0190918D01A0918E01B09190
:1010C0008F0130918B0123E0230F2D3758F50196C6
:1010D000A11DB11D20938B0180938C0190938D01F4
:1010E000A0938E01B0938F01809190019091910116
:1010F000A0919201B09193010196A11DB11D809321
:10110000900190939101A0939201B0939301BF91AC
:10111000AF919F918F913F912F910F900FBE0F90A4
:101120001F90189526E8230F0296A11DB11DD2CF5E
:101130001F920F920FB60F9211242F933F934F934C
:101140005F936F937F938F939F93AF93BF93EF932F
:10115000FF938091B900887F803609F44AC0F0F58A
:10116000883209F4A7C018F5803109F49BC0B8F49F
:10117000882309F4F9C0883009F494C0FF91EF91F5
:10118000BF91AF919F918F917F916F915F914F919F
:101190003F912F910F900FBE0F901F90189588319F
:1011A00009F488C0803251F78093E90114C080347B
:1011B00009F49DC040F48033B9F38833F9F6809385
:1011C000E90185ECB0C0803509F485C0883509F4A3
:1011D00096C0883499F60E94BE07D0CF883909F4AA
:1011E0008CC038F5883729F050F4883611F08037F4
:1011F00029F683E08093EB0110928A0157C088386A
:1012000009F47BC0803919F0803809F0B7CF80919C
:101210008A01803208F071C0E0918A0181E08E0F6E
:1012200080938A018091BB00F0E0E659FE4F8083F5
:101230003DC0803B39F0E0F4803A09F479C0883A47
:1012400009F09CCF84E08093EB0110926901109229
:101250006801E0919601F0919701099580916801EC
:1012600081110FC081E0809368011092480109C08C
:10127000803C09F4A6CF883C09F4A3CF883B09F051
:101280007DCFE091690181E08E0F80936901F0E0EC
:10129000E85BFE4F80818093BB0090916901809153
:1012A000680129C08091C6018093BB0085EC8093C2
:1012B000BC0064CF9091E8018091E701981758F540
:1012C000E091E80181E08E0F8093E801F0E0E953BE
:1012D000FE4F8081E9CFE091E80181E08E0F80939D
:1012E000E8018091BB00F0E0E953FE4F80839091CC
:1012F000E8018091E7019817C8F285E8D8CFE0911E
:10130000E80181E08E0F8093E8018091BB00F0E05E
:10131000E953FE4F80838091EA0181115CCF81E027
:101320008093C50184EA8093BC001092EB0126CF24
:1013300085EC8093BC001092EB0180918A01803291
:1013400030F4E0918A01F0E0E659FE4F108260919E
:101350008A0170E0E0919401F09195018AE691E0B4
:10136000099510928A010ACF1092E90134CFE5E184
:10137000F2E01382128248EE53E060E070E04483B2
:101380005583668377838CE091E09183808385EC3D
:1013900090E09587848784EC90E09787868780EC3F
:1013A00090E0918B808B81EC90E0938B828B82EC30
:1013B00090E0958B848B86EC90E0978B868B118EDA
:1013C000128E138E148EA2EBB2E013961C921E9214
:1013D000129714964D935D936D937C9317978EE1BE
:1013E00091E011969C938E931D96FC93EE931C971F
:1013F00081E090E01F969C938E931E9782E090E090
:1014000051969C938E9350978FEF9FEF53969C939A
:101410008E93529754961C92EDECF2E01382128256
:10142000448355836683778388E391E09183808347
:101430000895789484B5826084BD84B5816084BD4C
:1014400085B5826085BD85B5816085BD80916E0062
:10145000816080936E001092810080918100826093
:1014600080938100809181008160809381008091D0
:1014700080008160809380008091B10084608093BF
:10148000B1008091B00081608093B00080917A00BB
:10149000846080937A0080917A00826080937A00E1
:1014A00080917A00816080937A0080917A008068D0
:1014B00080937A001092C10060E082E00E944702AF
:1014C00060E083E00E94470260E084E00E944702FF
:1014D00010929D0110929C011092F2011092140240
:1014E0000E940B048CE890E0909397018093960102
:1014F0008DE890E0909395018093940140E05BE447
:1015000060E070E082EB92E00E94DB0384E1E82E71
:1015100001E02DE146E06EE08DE00E94B70568EE47
:1015200073E080E090E00E949D029CE3A92EB12C24
:1015300028E1822E912C30E0C32E30E0D32EC1E082
:10154000D0E00E9485068091C401853071F48091BD
:10155000C3010E9468068091C2010E944E066CE49D
:1015600074E080E090E00E949D0282E00E94C4014D
:10157000009709F065C080919A0190919B01892B99
:1015800019F50E9485068091C30190E00196B5018E
:101590000E94470B8093C301E090BE010091BF0100
:1015A0002091C0014091C1016091C2010E94B70524
:1015B0008091C3010E9468068091C2010E944E067C
:1015C000D0939B01C0939A0183E00E94C4010097CD
:1015D00009F044C08091980190919901892B21F5DF
:1015E000D0939901C09398010E9485068091C20111
:1015F00090E00196B4010E94470B8093C201E090F5
:10160000BE010091BF012091C0014091C101682F2E
:101610008091C3010E94B7058091C3010E946806B2
:101620008091C2010E944E06C114D10409F489CFF1
:101630000E94F800882309F484CF0E94000081CF23
:10164000019711F680919A0190919B01019709F001
:10165000BBCF10929B0110929A01B6CF019721F750
:1016600080919801909199010197F1F6109299015A
:1016700010929801D9CF991B79E004C0991F961751
:1016800008F0961B881F7A95C9F78095089597FBF7
:10169000072E16F4009407D077FD09D00E947D0B29
:1016A00007FC05D03EF4909581959F4F0895709565
:1016B00061957F4F0895A1E21A2EAA1BBB1BFD0165
:1016C0000DC0AA1FBB1FEE1FFF1FA217B307E40721
:1016D000F50720F0A21BB30BE40BF50B661F771F79
:1016E000881F991F1A9469F7609570958095909559
:1016F0009B01AC01BD01CF010895AA1BBB1B51E1A9
:1017000007C0AA1FBB1FA617B70710F0A61BB70B71
:10171000881F991F5A95A9F780959095BC01CD0116
:101720000895EE0FFF1F0590F491E02D0994F894B1
:02173000FFCFE9
:10173200FFC00100FFC00000000000002E018E006B
:10174200BB007B01EC00CA00DE0000000000D102F9
:101752008E002806E5020603F002FB02DB035903B2
:101762001103CF020000000088055B052806310541
:061772005405410532059B
:00000001FF
