:100000000C9463000C948B000C948B000C940409EA
:100010000C9404090C9404090C948B000C948B0030
:100020000C948B000C948B000C948B000C948B0024
:100030000C948B000C948B000C948B000C948B0014
:100040000C94BA080C948B000C9488080C946208E9
:100050000C948B000C948B000C948B000C948B00F4
:100060000C947C090C948B000000000024002700F5
:100070002A0000000008000201000003040700003D
:1000800000000000000000000000230026002900FE
:1000900000000000250028002B00040404040404D0
:1000A0000404020202020202030303030303010227
:1000B00004081020408001020408102001020408F6
:1000C00010209B0A830D11241FBECFEFD8E0DEBFA6
:1000D000CDBF11E0A0E0B1E0EEE4FCE102C005908C
:1000E0000D92A036B107D9F723E0A0E6B1E001C038
:1000F0001D92AB34B207E1F710E0C2E6D0E004C0D5
:100100002197FE010E94140EC136D107C9F70E9443
:10011000580B0C941A0E0C9400009B01AC01109229
:100120004703109246031092450310924403109225
:1001300043031092420360E079E08DE390E00E9477
:10014000E10DC9010397909349038093480390916F
:100150003803963108F054C0B9017695679563511C
:1001600071097093430360934203B90165507109AB
:100170007093450360934403B901660F771F260F00
:10018000371F36952795369527952C503109309392
:100190004703209346032091680084E0983048F09C
:1001A00031E09E3008F430E081E001C0880F3A95DC
:1001B000EAF7822B809368002DE630E0983050F00B
:1001C0002BE630E09E3030F02CE630E0963110F037
:1001D00030E020E03093400320933F03292F30E0AC
:1001E000983008F03DC081E001C0880F9A95EAF789
:1001F0008093410380914803909149030197F1F75F
:100200008091460390914703892B49F1E091810247
:10021000F091820283E0EC32F80709F1309739F06F
:10022000A389B4899C918589809589238C93809139
:100230004A038E7F80934A031092800210927F02BD
:100240008CE293E09093820280938102E0913F03DD
:10025000F0914003808190914103892B8083089520
:100260009E3040F42850310981E001C0880F2A9562
:10027000EAF7BECF2E503109F7CF08950895AF9217
:10028000BF92CF92DF92EF92FF920F931F93CF9383
:10029000DF936C017B018B01040F151FEB015E01E5
:1002A000AE18BF08C017D10759F06991D601ED917A
:1002B000FC910190F081E02DC6010995892B79F719
:1002C000C501DF91CF911F910F91FF90EF90DF90CB
:1002D000CF90BF90AF900895FC01538D448D252F92
:1002E00030E0842F90E0821B930B541710F0CF96D0
:1002F000089501970895FC01918D828D981761F002
:10030000A28DAE0FBF2FB11D5D968C91928D9F5F18
:100310009F73928F90E008958FEF9FEF0895FC01F7
:10032000918D828D981731F0828DE80FF11D858DAA
:1003300090E008958FEF9FEF0895FC01918D228D3D
:10034000892F90E0805C9F4F821B91098F739927C2
:10035000089583E892E00E949D0121E0892B09F431
:1003600020E0822F089580E090E0892B29F00E9400
:10037000A90181110C9400000895FC01A48DA80F1F
:10038000B92FB11DA35ABF4F2C91848D90E00196D7
:100390008F739927848FA689B7892C93A089B189F7
:1003A0008C91837080648C93938D848D981306C098
:1003B0000288F389E02D80818F7D80830895EF92FC
:1003C000FF920F931F93CF93DF93EC0181E0888F0F
:1003D0009B8D8C8D98131AC0E889F989808185FFDF
:1003E00015C09FB7F894EE89FF896083E889F98981
:1003F00080818370806480839FBF81E090E0DF9183
:10040000CF911F910F91FF90EF900895F62E0B8DD5
:1004100010E00F5F1F4F0F731127E02E8C8D8E1190
:100420000CC00FB607FCFACFE889F989808185FFF7
:10043000F5CFCE010E94BD01F1CFEB8DEC0FFD2F6A
:10044000F11DE35AFF4FF0829FB7F8940B8FEA89B2
:10045000FB8980818062CFCFCF93DF93EC01888DC1
:100460008823B9F0AA89BB89E889F9898C9185FD2F
:1004700003C0808186FD0DC00FB607FCF7CF8C91BD
:1004800085FFF2CF808185FFEDCFCE010E94BD01B7
:10049000E9CFDF91CF910895833081F028F4813046
:1004A00099F08230A9F008958730A9F08830C9F01A
:1004B0008430B1F4809180008F7D03C080918000F2
:1004C0008F7780938000089584B58F7784BD0895D9
:1004D00084B58F7DFBCF8091B0008F778093B00083
:1004E00008958091B0008F7DF9CFCF93DF93282FAF
:1004F00030E0F901EE58FF4F8491F901E255FF4FCA
:10050000D491F901E656FF4FC491CC23A1F081119B
:100510000E944C02EC2FF0E0EE0FFF1FEA57FF4F56
:10052000A591B491EC91ED2381E090E009F480E095
:10053000DF91CF91089580E090E0FACF1F93CF93A1
:10054000DF93282F30E0F901EE58FF4F8491F90135
:10055000E255FF4FD491F901E656FF4FC491CC23E9
:10056000A9F0162F81110E944C02EC2FF0E0EE0F43
:10057000FF1FE057FF4FA591B4918FB7F894EC910E
:10058000111108C0D095DE23DC938FBFDF91CF918E
:100590001F910895DE2BF8CFCF93DF9390E0FC01FD
:1005A000E255FF4F249186569F4FFC01849188238A
:1005B000D1F090E0880F991FFC01E859FF4FA591F9
:1005C000B491FC01E057FF4FC591D49161110EC069
:1005D0009FB7F8948C91E22FE0958E238C9328811D
:1005E000E223E8839FBFDF91CF9108958FB7F894FE
:1005F000EC91E22BEC938FBFF6CF3FB7F89480914C
:10060000EA019091EB01A091EC01B091ED0126B5CA
:10061000A89B05C02F3F19F00196A11DB11D3FBF3A
:10062000BA2FA92F982F8827BC01CD01620F711D09
:10063000811D911D42E0660F771F881F991F4A9503
:10064000D1F708958F929F92AF92BF92CF92DF928F
:10065000EF92FF924B015C010E94FD026B017C0155
:100660000E94FD026C197D098E099F09683E734046
:1006700081059105A8F321E0821A9108A108B1082B
:1006800088EEC80E83E0D81EE11CF11C8114910491
:10069000A104B10429F7FF90EF90DF90CF90BF90B5
:1006A000AF909F908F9008952FB7F8946091E601D6
:1006B0007091E7018091E8019091E9012FBF0895C1
:1006C00020918102309182022817390771F49091AC
:1006D0007F0280918002981741F0E0917F02F0E064
:1006E000EB55FE4F808190E008958FEF9FEF0895C6
:1006F0000895EF92FF920F931F93CF93DF93DC0146
:100700005C96ED90FC905D97E114F10479F481E042
:1007100090E013969C938E93129790E080E0DF9187
:10072000CF911F910F91FF90EF9008955196ED9109
:10073000FC91529750968C915097982F90950FB7A7
:100740005E962C915E97122F127021FD6095F894A1
:100750002081112319F1282B2083E7012197F1F73C
:1007600028E0462F50E0308160FF1AC0382B3083DC
:10077000E7012197F1F7BA0175956795215089F73F
:10078000112381F08081892380830FBF5C968D9136
:100790009C910197F1F781E090E0C1CF2923DCCF54
:1007A0003923E5CF9081892BEFCF209181023091C1
:1007B00082022817390771F48091800220917F020C
:1007C00090E0805C9F4F821B910960E470E00E9482
:1007D000AB0D089590E080E0089520918102309162
:1007E000820228173907B9F490917F028091800224
:1007F000981789F0E0917F02F0E0EB55FE4F808181
:1008000020917F0230E02F5F3F4F2F7333272093DB
:100810007F0290E008958FEF9FEF0895209182016D
:10082000260F3327331F21323105ECF42091540277
:10083000FC0190E080E0243069F082E00895A0910E
:1008400082012191AC014E595E4FA40FB52FB11D0D
:100850002C930196861798F380918201680F60931C
:10086000820180E0089581E008951092540281E0B1
:100870008093530210922E0261E082E10E949E0258
:1008800061E083E10E949E02E9EBF0E080818E7FCF
:10089000808380818D7F808388E48093B80085E4A5
:1008A0008093BC000895CF93DF9391E09093610112
:1008B0008823B9F0C091B800D091BA008091BC00F3
:1008C0008A7B8093BC0060E082E10E949E0260E02F
:1008D00083E10E949E020E943504D093BA00C09327
:1008E000B800DF91CF910895CF92DF92EF92FF92FF
:1008F0000F931F93CF93DF93D0917D0281E0D1328C
:1009000008F09CC0C0917C020E94FD026B017C013A
:100910008091540281116CC082E08093540281E086
:10092000809353028FEF8093520210925102D09322
:100930005002ACE5B2E0E0E3F2E080E0D8138DC015
:1009400010922F0280912F02CC0FC82BC0932F0240
:1009500080912E02813009F084C010922E020E94F4
:10096000FD026B017C0180912F028093BB0080917E
:10097000560290915702A0915802B0915902892BCA
:100980008A2B8B2BA1F00E94FD0200915602109140
:10099000570220915802309159026C197D098E0935
:1009A0009F09061717072807390708F442C08091E6
:1009B000BC0083FDD8CF85EC8093BC000E94FD0273
:1009C0006B017C0180915402823009F44CC080910B
:1009D00052028F3F09F469C080915202803209F4BB
:1009E00066C080915202803309F463C084E026C05F
:1009F0008091560290915702A0915802B0915902ED
:100A0000892B8A2B8B2B09F483CF0E94FD02009146
:100A100056021091570220915802309159026C19D8
:100A20007D098E099F09061717072807390708F05F
:100A30006FCF809155020E94530485E010925B02B3
:100A400010927D0210925A02DF91CF911F910F9167
:100A5000FF90EF90DF90CF9008959D9191938F5FDD
:100A60006DCF85EEA9CF8091560290915702A0914B
:100A70005802B0915902892B8A2B8B2B09F4A2CFF3
:100A80000E94FD02009156021091570220915802D7
:100A9000309159026C197D098E099F0906171707B5
:100AA0002807390708F08ECFC4CF80E0C7CF82E097
:100AB000C5CF83E0C3CFE091070280910602E8171B
:100AC00030F4F0E0E85FFD4F808190E008958FEF13
:100AD0009FEF089590910702809106022FEF3FEF5C
:100AE000981748F4E92FF0E0E85FFD4F208130E0EF
:100AF0009F5F90930702C90108958091060290912B
:100B00000702891B990B0895CF92DF92EF92FF9213
:100B10000F931F93CF93DF937C01CB018A01209128
:100B20005A02222389F0EB016B01C40ED51ECC15AD
:100B3000DD0569F06991D701ED91FC910190F0819B
:100B4000E02DC7010995F3CF642F0E940E04C80160
:100B5000DF91CF911F910F91FF90EF90DF90CF9099
:100B60000895CF93DF931F92CDB7DEB769832091AD
:100B70005A022223F9F020917D02203258F021E020
:100B800030E0FC013383228390E080E00F90DF911E
:100B9000CF91089580915B02E82FF0E0E45AFD4F79
:100BA000998190838F5F80935B0280937D0281E0C7
:100BB00090E0ECCF61E0CE0101960E940E04F7CFE9
:100BC000DF92EF92FF920F931F93CF93DF93D82E74
:100BD000F62E142FD22F81E080935A0288E680935C
:100BE0007C0210925B0210927D0260E080E293E052
:100BF0000E94B10560E080E293E00E94B105CAE086
:100C00008D2D6C2F0E949F0D8295807F682F690F1C
:100C100080E293E00E94B1058F2D6C2F0E949F0D02
:100C20008295807F682F690F80E293E00E94B10572
:100C3000812F6C2F0E949F0D8295807F682F690FF6
:100C400080E293E00E94B1058D2F6C2F0E949F0DD2
:100C50008295807F682F690F80E293E00E94B10542
:100C6000802F6C2F0E949F0D8295807F682F690FC7
:100C700080E293E00E94B1058E2D6C2F0E949F0DA3
:100C80008295807F682F690F80E293E00E94B10512
:100C9000DF91CF911F910F91FF90EF90DF900C9417
:100CA000740490E080E00895CF93DF93D82FC62F8F
:100CB0006CE271E080E090E00E948D0061E084E0F1
:100CC0000E949E0241E050E060E671E08CE293E019
:100CD0000E943F016AE070E080E090E00E94220301
:100CE00060E07BE480E090E00E948D0062E070E0D4
:100CF00080E090E00E942203E0E0F1E0D283C38331
:100D000044E050E0BF018CE293E00E943F0160E0CC
:100D100084E0DF91CF910C949E0280917E0268E185
:100D20000E949F0D692F81E00C94540690E04E962E
:100D30006DE370E00E94AB0D682F82E00C945406C6
:100D4000CF92DF92EF92FF920F931F93CF9381E0A8
:100D500080935A0288E680937C0210925B02109284
:100D60007D0260E080E293E00E94B1050E9474047D
:100D70000E94FD026B017C0180915402811165C0CB
:100D800081E080935402809353029FEF909352022C
:100D90001092510296E09093500280932F0280911E
:100DA0002F02806D80932F0280912E02813009F0F6
:100DB000DAC010922E020E94FD026B017C0180912C
:100DC0002F028093BB008091560290915702A09110
:100DD0005802B0915902892B8A2B8B2BA1F00E94CB
:100DE000FD02009156021091570220915802309155
:100DF00059026C197D098E099F09061717072807E4
:100E0000390708F443C08091BC0083FDD8CF85EC3E
:100E10008093BC000E94FD026B017C018091540212
:100E2000813009F4A2C080915102873008F0BFC020
:100E300080915102A0E3B2E0E8E0F2E090E0981780
:100E400051F12D9121939F5FFACF8091560290919D
:100E50005702A0915802B0915902892B8A2B8B2BF3
:100E600009F48ACF0E94FD020091560210915702A8
:100E700020915802309159026C197D098E099F0901
:100E8000061717072807390708F076CF8091550213
:100E90000E94530480E0109207028093060280E2D1
:100EA00093E00E946A05982F92959770CAE08F7020
:100EB0009C9F800D112480932D0280E293E00E947C
:100EC0006A05982F92959F708F709C9F800D1124BA
:100ED00080932C0280E293E00E946A05982F9295FD
:100EE00093708F709C9F800D112480937E0280E20E
:100EF00093E00E946A05982F92959F708F709C9F37
:100F0000800D112480932B0280E293E00E946A05F9
:100F1000982F92959F708F709C9F800D11248093C5
:100F20002A0280E293E00E946A05982F92959F70B2
:100F30008F709C9F800D11248093290280E293E0A2
:100F40000E946A05982F92959F708F709C9F800DCC
:100F5000112480932802CF911F910F91FF90EF9061
:100F6000DF90CF90089585EE53CF809156029091F7
:100F70005702A0915802B0915902892B8A2B8B2BD2
:100F800009F44CCF0E94FD020091560210915702C5
:100F900020915802309159026C197D098E099F09E0
:100FA000061717072807390708F038CF6FCF87E0F3
:100FB00041CFFC0101900020E9F73197AF01481BB8
:100FC000590BBC0183E892E00C943F018F929F92F1
:100FD000AF92BF920F931F93CF93DF93CDB7DEB73E
:100FE000A1970FB6F894DEBF0FBECDBF19A2423055
:100FF00008F44AE08E010F5D1F4F842E912CB12C16
:10100000A12CA50194010E94BF0DE62FB901CA01D0
:10101000EA30F4F4E05DD801EE938D01232B242B0C
:10102000252B79F790E080E0109719F0CD010E9410
:10103000D907A1960FB6F894DEBF0FBECDBFDF91E2
:10104000CF911F910F91BF90AF909F908F90089577
:10105000E95CE1CF85ED8093BC00809156029091D0
:101060005702A0915802B09159020796A11DB11DD7
:1010700023E0B695A795979587952A95D1F7209166
:10108000BC0024FD03C01092540208954091560202
:10109000509157026091580270915902452B462B8E
:1010A000472B69F30097A105B10541F025E32A9587
:1010B000F1F700000197A109B109E1CF8091550234
:1010C0000C9453041F920F920FB60F9211242F937A
:1010D0003F934F935F936F937F938F939F93AF93C0
:1010E000BF93EF93FF9383E892E00E94BD01FF91CD
:1010F000EF91BF91AF919F918F917F916F915F9190
:101100004F913F912F910F900FBE0F901F90189508
:101110001F920F920FB60F9211242F938F939F93CC
:10112000EF93FF93E0919302F09194028081E0911C
:101130009902F0919A0282FD1BC0908180919C02DD
:101140008F5F8F7320919D02821741F0E0919C0286
:10115000F0E0ED57FD4F958F80939C02FF91EF914A
:101160009F918F912F910F900FBE0F901F90189508
:101170008081F4CF1F920F920FB60F9211242F93FC
:101180003F938F939F93AF93BF938091E60190918C
:10119000E701A091E801B091E9013091E50123E078
:1011A000230F2D3758F50196A11DB11D2093E501A0
:1011B0008093E6019093E701A093E801B093E901E1
:1011C0008091EA019091EB01A091EC01B091ED01C9
:1011D0000196A11DB11D8093EA019093EB01A093AC
:1011E000EC01B093ED01BF91AF919F918F913F9131
:1011F0002F910F900FBE0F901F90189526E8230F88
:101200000296A11DB11DD2CF1F920F920FB60F9261
:1012100011242F933F934F935F936F937F938F93FB
:101220009F93AF93BF93EF93FF93E0918102F0916F
:101230008202309749F0A685B7858585968D91FF06
:1012400014C09C918923A1F4FF91EF91BF91AF91BC
:101250009F918F917F916F915F914F913F912F91CE
:101260000F900FBE0F901F9018959C91892361F7E6
:10127000A389B4899C918589809589238C938689DB
:1012800097890197F1F7608D718DA685B785558592
:1012900038E020E0CB010197F1F7822F90E095959F
:1012A0008795282F4C91452309F02068315091F7FC
:1012B000868D81FD20958091800290E001968F734C
:1012C000992730917F02381799F0A0918002B0E001
:1012D000AB55BE4F2C9380938002828D938D0197E6
:1012E000F1F7A389B4898C919589892B8C93ACCF24
:1012F000868D8160868FF1CF1F920F920FB60F926D
:1013000011242F933F934F935F936F937F938F930A
:101310009F93AF93BF93EF93FF938091B900887F22
:10132000803609F44AC0F0F5883209F4A7C018F5F0
:10133000803109F49BC0B8F4882309F4F9C08830DF
:1013400009F494C0FF91EF91BF91AF919F918F915C
:101350007F916F915F914F913F912F910F900FBEB1
:101360000F901F901895883109F488C0803251F78A
:101370008093520214C0803409F49DC040F480333D
:10138000B9F38833F9F68093520285ECB0C080350A
:1013900009F485C0883509F496C0883499F60E940E
:1013A0002A08D0CF883909F48CC038F5883729F05D
:1013B00050F4883611F0803729F683E08093540288
:1013C0001092A40157C0883809F47BC0803919F005
:1013D000803809F0B7CF8091A401803208F071C045
:1013E000E091A40181E08E0F8093A4018091BB0065
:1013F000F0E0EC57FE4F80833DC0803B39F0E0F4D5
:10140000803A09F479C0883A09F09CCF84E080934F
:1014100054021092830110928201E091F001F09148
:10142000F10109958091820181110FC081E08093C3
:1014300082011092620109C0803C09F4A6CF883C69
:1014400009F4A3CF883B09F07DCFE091830181E0CF
:101450008E0F80938301F0E0EE59FE4F80818093E0
:10146000BB00909183018091820129C080912F025D
:101470008093BB0085EC8093BC0064CF90915102B7
:1014800080915002981758F5E091510281E08E0F3B
:1014900080935102F0E0E05DFD4F8081E9CFE09163
:1014A000510281E08E0F809351028091BB00F0E0E9
:1014B000E05DFD4F8083909151028091500298171A
:1014C000C8F285E8D8CFE091510281E08E0F809379
:1014D00051028091BB00F0E0E05DFD4F8083809180
:1014E000530281115CCF81E080932E0284EA8093C5
:1014F000BC001092540226CF85EC8093BC00109261
:1015000054028091A401803230F4E091A401F0E013
:10151000EC57FE4F10826091A40170E0E091EE0163
:10152000F091EF0184E891E009951092A4010ACFAF
:101530001092520234CF109286021092850288EEE9
:1015400093E0A0E0B0E08093870290938802A0939C
:101550008902B0938A022EE031E030938402209316
:10156000830225EC30E03093900220938F0224EC2C
:1015700030E0309392022093910220EC30E03093DF
:1015800094022093930221EC30E030939602209352
:10159000950222EC30E0309398022093970226ECDB
:1015A00030E030939A022093990210929C0210929C
:1015B0009D0210929E0210929F021092230310929D
:1015C00022038093240390932503A0932603B093D2
:1015D000270320E231E0309321032093200310926F
:1015E0002F0310922E038093300390933103A09326
:1015F0003203B093330382E391E090932D03809301
:101600002C03109243031092420310924503109250
:10161000440310924703109246031092490310921C
:10162000480360914A036E7F6D7F60934A0366951D
:10163000617081E0682783E00E949E0261E083E0A0
:101640000E94CC02E1EBF0E0E491E0933C03EDE991
:10165000F0E0E491F0E0EE0FFF1FE057FF4F8591BF
:10166000949190933E0380933D0360E082E00E945A
:10167000CC0280914A0381FD04C061E082E00E94B7
:101680009E0282E080933803E0EBF0E0E491E09387
:101690003903ECE9F0E0E491F0E0EE0FFF1FEA57C8
:1016A000FF4F8591949190933B0380933A03089563
:1016B000789484B5826084BD84B5816084BD85B52D
:1016C000826085BD85B5816085BD80916E00816039
:1016D00080936E00109281008091810082608093DF
:1016E00081008091810081608093810080918000E1
:1016F0008160809380008091B10084608093B1000C
:101700008091B00081608093B00080917A00846005
:1017100080937A0080917A00826080937A00809131
:101720007A00816080937A0080917A00806880934B
:101730007A001092C10010920702109206021092D5
:101740005B0210927D020E9435048DE391E090933C
:10175000F1018093F0018EE391E09093EF0180938B
:10176000EE0160E07BE480E090E00E948D0061E0AB
:1017700084E00E94CC0260E085E00E94CC0260E040
:1017800086E00E94CC0260E087E00E94CC02E091FB
:101790009302F091940282E08083E0918F02F091B5
:1017A00090021082E0919102F09192028FEC80837E
:1017B00010929B02E0919702F091980286E080835C
:1017C000E0919502F0919602808180618083E091A2
:1017D0009502F0919602808188608083E091950265
:1017E000F0919602808180688083E0919502F0916B
:1017F000960280818F7D808368EE73E080E090E0C8
:101800000E9422030E94A0060E948D0680912C0255
:101810000E9496068CE3A82EB12C98E1892E912C7B
:1018200020E0C22E20E0D22E0E94A00620912D02A0
:1018300080910402909105022817190659F16091D0
:101840007E0270E090E080E04AE00E94E60780E4DB
:1018500091E00E94D90760912C0270E090E080E056
:101860004AE00E94E60780E491E00E94D907609177
:101870002D0270E090E080E04AE00E94E60782E4FA
:1018800091E00E94D90780912D0290E0909305028B
:101890008093040280912D02853061F40E948D06B0
:1018A00080912C020E94960668EE73E080E090E042
:1018B0000E94220385E00E947502EC0180910801DC
:1018C00090910901C817D90751F00E945403609301
:1018D00000027093010280930202909303020E941F
:1018E00054030091000210910102209102023091F4
:1018F0000302601B710B820B930B6333710581052F
:10190000910508F448C08091FE019091FF01C8172D
:10191000D90709F440C0D093FF01C093FE0185E4CC
:1019200091E00E94D90782E491E00E94D9070E94C9
:1019300054030091000210910102209102023091A3
:101940000302601B710B820B930B4AE00E94E607B7
:1019500082E491E00E94D9078091FE019091FF01FD
:10196000892BC9F480912C0290E00196B5010E9468
:10197000AB0D80932C02E090280200912902209167
:101980002A0240912B0260917E020E94E005809124
:101990002C020E949606D0930901C093080186E0AC
:1019A0000E947502EC018091060190910701C81711
:1019B000D90751F00E9454036093FA017093FB0120
:1019C0008093FC019093FD010E9454030091FA0161
:1019D0001091FB012091FC013091FD01601B710B06
:1019E000820B930B633371058105910528F180917A
:1019F000F8019091F901C817D907F1F0D093F901D6
:101A0000C093F8012097C1F480917E0290E0019686
:101A1000B4010E94AB0D80937E02E09028020091F9
:101A2000290220912A0240912B02682F80912C02DA
:101A30000E94E0050E948D06D0930701C093060125
:101A400087E00E947502EC018091040190910501EC
:101A5000C817D90751F00E9454036093F4017093A2
:101A6000F5018093F6019093F7010E9454030091D1
:101A7000F4011091F5012091F6013091F701601BFE
:101A8000710B820B930B633371058105910558F13E
:101A90008091F2019091F301C817D90721F1D093F9
:101AA000F301C093F2012097F1F480912C02815050
:101AB00080932C0280917E02815080937E020E944E
:101AC0008D0680912C020E94960660ED77E080E002
:101AD00090E00E9422030E94A0060E948D06809141
:101AE0002C020E949606D0930501C0930401C114F4
:101AF000D10409F499CE0E94A901882309F494CE57
:101B00000E94000091CE82E391E090932D03809398
:101B10002C0380918102909182028C52934071F447
:101B2000E0913F03F09140039081809141038095C3
:101B30008923808310928202109281020895991B5A
:101B400079E004C0991F961708F0961B881F7A95B4
:101B5000C9F78095089597FB072E16F4009407D0D7
:101B600077FD09D00E94000E07FC05D03EF4909549
:101B700081959F4F0895709561957F4F0895A1E2DB
:101B80001A2EAA1BBB1BFD010DC0AA1FBB1FEE1FF7
:101B9000FF1FA217B307E407F50720F0A21BB30B42
:101BA000E40BF50B661F771F881F991F1A9469F7BE
:101BB00060957095809590959B01AC01BD01CF011A
:101BC0000895052E97FB1EF400940E94F80D57FD12
:101BD00007D00E94BF0D07FC03D04EF40C94F80D03
:101BE00050954095309521953F4F4F4F5F4F089549
:101BF00090958095709561957F4F8F4F9F4F089579
:101C0000AA1BBB1B51E107C0AA1FBB1FA617B70722
:101C100010F0A61BB70B881F991F5A95A9F780953E
:101C20009095BC01CD010895EE0FFF1F0590F49132
:101C3000E02D099410E0C2E6D0E004C0FE010E944D
:0E1C4000140E2196C336D107C9F7F894FFCFD2
:101C4E00FFC0000001000100010000000000DF01E4
:101C5E003F016C012C029D017B018F0100000000F1
:101C6E00B1058405510678037D056A055B05000004
:101C7E00000079033F0151067803D503ED0360039D
:101C8E003A000D0A004C617374206465626F756EC4
:101C9E0063652064696666204D696E757465000023
:00000001FF
